{
  "_format": "hh-sol-artifact-1",
  "contractName": "Marketplace",
  "sourceName": "contracts/Marketplace.sol",
  "abi": [
    {
      "inputs": [
        {
          "internalType": "uint256",
          "name": "_feePercent",
          "type": "uint256"
        }
      ],
      "stateMutability": "nonpayable",
      "type": "constructor"
    },
    {
      "anonymous": false,
      "inputs": [
        {
          "indexed": false,
          "internalType": "uint256",
          "name": "itemId",
          "type": "uint256"
        },
        {
          "indexed": true,
          "internalType": "address",
          "name": "nft",
          "type": "address"
        },
        {
          "indexed": false,
          "internalType": "uint256",
          "name": "tokenId",
          "type": "uint256"
        },
        {
          "indexed": false,
          "internalType": "uint256",
          "name": "price",
          "type": "uint256"
        },
        {
          "indexed": true,
          "internalType": "address",
          "name": "seller",
          "type": "address"
        },
        {
          "indexed": true,
          "internalType": "address",
          "name": "buyer",
          "type": "address"
        }
      ],
      "name": "Bought",
      "type": "event"
    },
    {
      "anonymous": false,
      "inputs": [
        {
          "indexed": false,
          "internalType": "uint256",
          "name": "itemId",
          "type": "uint256"
        },
        {
          "indexed": true,
          "internalType": "address",
          "name": "nft",
          "type": "address"
        },
        {
          "indexed": false,
          "internalType": "uint256",
          "name": "tokenId",
          "type": "uint256"
        },
        {
          "indexed": false,
          "internalType": "uint256",
          "name": "price",
          "type": "uint256"
        },
        {
          "indexed": true,
          "internalType": "address",
          "name": "seller",
          "type": "address"
        }
      ],
      "name": "Offered",
      "type": "event"
    },
    {
      "inputs": [],
      "name": "feeAccount",
      "outputs": [
        {
          "internalType": "address payable",
          "name": "",
          "type": "address"
        }
      ],
      "stateMutability": "view",
      "type": "function"
    },
    {
      "inputs": [],
      "name": "feePercent",
      "outputs": [
        {
          "internalType": "uint256",
          "name": "",
          "type": "uint256"
        }
      ],
      "stateMutability": "view",
      "type": "function"
    },
    {
      "inputs": [
        {
          "internalType": "uint256",
          "name": "_itemId",
          "type": "uint256"
        }
      ],
      "name": "getPrice",
      "outputs": [
        {
          "internalType": "uint256",
          "name": "",
          "type": "uint256"
        }
      ],
      "stateMutability": "view",
      "type": "function"
    },
    {
      "inputs": [
        {
          "internalType": "uint256",
          "name": "_itemId",
          "type": "uint256"
        }
      ],
      "name": "getTotalPrice",
      "outputs": [
        {
          "internalType": "uint256",
          "name": "",
          "type": "uint256"
        }
      ],
      "stateMutability": "view",
      "type": "function"
    },
    {
      "inputs": [],
      "name": "itemCount",
      "outputs": [
        {
          "internalType": "uint256",
          "name": "",
          "type": "uint256"
        }
      ],
      "stateMutability": "view",
      "type": "function"
    },
    {
      "inputs": [
        {
          "internalType": "uint256",
          "name": "",
          "type": "uint256"
        }
      ],
      "name": "items",
      "outputs": [
        {
          "internalType": "uint256",
          "name": "itemId",
          "type": "uint256"
        },
        {
          "internalType": "contract IERC721",
          "name": "nft",
          "type": "address"
        },
        {
          "internalType": "uint256",
          "name": "tokenId",
          "type": "uint256"
        },
        {
          "internalType": "uint256",
          "name": "price",
          "type": "uint256"
        },
        {
          "internalType": "address payable",
          "name": "seller",
          "type": "address"
        },
        {
          "internalType": "bool",
          "name": "sold",
          "type": "bool"
        }
      ],
      "stateMutability": "view",
      "type": "function"
    },
    {
      "inputs": [
        {
          "internalType": "contract IERC721",
          "name": "_nft",
          "type": "address"
        },
        {
          "internalType": "uint256",
          "name": "_tokenId",
          "type": "uint256"
        },
        {
          "internalType": "uint256",
          "name": "_price",
          "type": "uint256"
        }
      ],
      "name": "makeItem",
      "outputs": [],
      "stateMutability": "nonpayable",
      "type": "function"
    },
    {
      "inputs": [
        {
          "internalType": "uint256",
          "name": "_itemId",
          "type": "uint256"
        }
      ],
      "name": "purchaseItem",
      "outputs": [],
      "stateMutability": "payable",
      "type": "function"
    }
  ],
  "bytecode": "0x60c060405234801561001057600080fd5b506040516111f13803806111f183398181016040528101906100329190610094565b60016000819055508060a081815250503373ffffffffffffffffffffffffffffffffffffffff1660808173ffffffffffffffffffffffffffffffffffffffff1660601b81525050506100de565b60008151905061008e816100c7565b92915050565b6000602082840312156100a657600080fd5b60006100b48482850161007f565b91505092915050565b6000819050919050565b6100d0816100bd565b81146100db57600080fd5b50565b60805160601c60a0516110dd6101146000396000818161022e01526102df015260008181610204015261051701526110dd6000f3fe60806040526004361061007b5760003560e01c8063ca7dd3751161004e578063ca7dd37514610143578063d38ea5bf14610180578063e75722301461019c578063fa00afc7146101d95761007b565b806365e17c9d146100805780636bfb0d01146100ab5780637fd6f15c146100d6578063bfb231d214610101575b600080fd5b34801561008c57600080fd5b50610095610202565b6040516100a29190610baa565b60405180910390f35b3480156100b757600080fd5b506100c0610226565b6040516100cd9190610c9c565b60405180910390f35b3480156100e257600080fd5b506100eb61022c565b6040516100f89190610c9c565b60405180910390f35b34801561010d57600080fd5b5061012860048036038101906101239190610a87565b610250565b60405161013a96959493929190610cb7565b60405180910390f35b34801561014f57600080fd5b5061016a60048036038101906101659190610a87565b6102d9565b6040516101779190610c9c565b60405180910390f35b61019a60048036038101906101959190610a87565b61033c565b005b3480156101a857600080fd5b506101c360048036038101906101be9190610a87565b61071c565b6040516101d09190610c9c565b60405180910390f35b3480156101e557600080fd5b5061020060048036038101906101fb9190610a38565b61073c565b005b7f000000000000000000000000000000000000000000000000000000000000000081565b60015481565b7f000000000000000000000000000000000000000000000000000000000000000081565b60026020528060005260406000206000915090508060000154908060010160009054906101000a900473ffffffffffffffffffffffffffffffffffffffff16908060020154908060030154908060040160009054906101000a900473ffffffffffffffffffffffffffffffffffffffff16908060040160149054906101000a900460ff16905086565b600060647f0000000000000000000000000000000000000000000000000000000000000000606461030a9190610d60565b600260008581526020019081526020016000206003015461032b9190610de7565b6103359190610db6565b9050919050565b60026000541415610382576040517f08c379a000000000000000000000000000000000000000000000000000000000815260040161037990610c5c565b60405180910390fd5b60026000819055506000610395826102d9565b905060006002600084815260200190815260200160002090506000831180156103c057506001548311155b6103ff576040517f08c379a00000000000000000000000000000000000000000000000000000000081526004016103f690610c3c565b60405180910390fd5b81341015610442576040517f08c379a000000000000000000000000000000000000000000000000000000000815260040161043990610c1c565b60405180910390fd5b8060040160149054906101000a900460ff1615610494576040517f08c379a000000000000000000000000000000000000000000000000000000000815260040161048b90610c7c565b60405180910390fd5b8060040160009054906101000a900473ffffffffffffffffffffffffffffffffffffffff1673ffffffffffffffffffffffffffffffffffffffff166108fc60026000868152602001908152602001600020600301549081150290604051600060405180830381858888f19350505050158015610514573d6000803e3d6000fd5b507f000000000000000000000000000000000000000000000000000000000000000073ffffffffffffffffffffffffffffffffffffffff166108fc82600301548461055f9190610e41565b9081150290604051600060405180830381858888f1935050505015801561058a573d6000803e3d6000fd5b5060018160040160146101000a81548160ff0219169083151502179055508060010160009054906101000a900473ffffffffffffffffffffffffffffffffffffffff1673ffffffffffffffffffffffffffffffffffffffff166323b872dd303384600201546040518463ffffffff1660e01b815260040161060d93929190610bc5565b600060405180830381600087803b15801561062757600080fd5b505af115801561063b573d6000803e3d6000fd5b505050503373ffffffffffffffffffffffffffffffffffffffff168160040160009054906101000a900473ffffffffffffffffffffffffffffffffffffffff1673ffffffffffffffffffffffffffffffffffffffff168260010160009054906101000a900473ffffffffffffffffffffffffffffffffffffffff1673ffffffffffffffffffffffffffffffffffffffff167f8b4c9c8a607d67b321582dd8461041b1dc2ceeca70c8b7f37f8e02095cf2e76d868560020154866003015460405161070793929190610d18565b60405180910390a45050600160008190555050565b600060026000838152602001908152602001600020600301549050919050565b60026000541415610782576040517f08c379a000000000000000000000000000000000000000000000000000000000815260040161077990610c5c565b60405180910390fd5b6002600081905550600081116107cd576040517f08c379a00000000000000000000000000000000000000000000000000000000081526004016107c490610bfc565b60405180910390fd5b600160008154809291906107e090610f05565b91905055508273ffffffffffffffffffffffffffffffffffffffff166323b872dd3330856040518463ffffffff1660e01b815260040161082293929190610bc5565b600060405180830381600087803b15801561083c57600080fd5b505af1158015610850573d6000803e3d6000fd5b505050506040518060c0016040528060015481526020018473ffffffffffffffffffffffffffffffffffffffff1681526020018381526020018281526020013373ffffffffffffffffffffffffffffffffffffffff168152602001600015158152506002600060015481526020019081526020016000206000820151816000015560208201518160010160006101000a81548173ffffffffffffffffffffffffffffffffffffffff021916908373ffffffffffffffffffffffffffffffffffffffff160217905550604082015181600201556060820151816003015560808201518160040160006101000a81548173ffffffffffffffffffffffffffffffffffffffff021916908373ffffffffffffffffffffffffffffffffffffffff16021790555060a08201518160040160146101000a81548160ff0219169083151502179055509050503373ffffffffffffffffffffffffffffffffffffffff168373ffffffffffffffffffffffffffffffffffffffff167f655a0cf9c8db81512be9a76dc1c5ae5380b8816ce6ad659cd61b715e2999d59a60015485856040516109f993929190610d18565b60405180910390a36001600081905550505050565b600081359050610a1d81611079565b92915050565b600081359050610a3281611090565b92915050565b600080600060608486031215610a4d57600080fd5b6000610a5b86828701610a0e565b9350506020610a6c86828701610a23565b9250506040610a7d86828701610a23565b9150509250925092565b600060208284031215610a9957600080fd5b6000610aa784828501610a23565b91505092915050565b610ab981610e87565b82525050565b610ac881610e75565b82525050565b610ad781610e99565b82525050565b610ae681610ee1565b82525050565b6000610af9601f83610d4f565b9150610b0482610fac565b602082019050919050565b6000610b1c601283610d4f565b9150610b2782610fd5565b602082019050919050565b6000610b3f601283610d4f565b9150610b4a82610ffe565b602082019050919050565b6000610b62601f83610d4f565b9150610b6d82611027565b602082019050919050565b6000610b85601183610d4f565b9150610b9082611050565b602082019050919050565b610ba481610ed7565b82525050565b6000602082019050610bbf6000830184610ab0565b92915050565b6000606082019050610bda6000830186610abf565b610be76020830185610abf565b610bf46040830184610b9b565b949350505050565b60006020820190508181036000830152610c1581610aec565b9050919050565b60006020820190508181036000830152610c3581610b0f565b9050919050565b60006020820190508181036000830152610c5581610b32565b9050919050565b60006020820190508181036000830152610c7581610b55565b9050919050565b60006020820190508181036000830152610c9581610b78565b9050919050565b6000602082019050610cb16000830184610b9b565b92915050565b600060c082019050610ccc6000830189610b9b565b610cd96020830188610add565b610ce66040830187610b9b565b610cf36060830186610b9b565b610d006080830185610ab0565b610d0d60a0830184610ace565b979650505050505050565b6000606082019050610d2d6000830186610b9b565b610d3a6020830185610b9b565b610d476040830184610b9b565b949350505050565b600082825260208201905092915050565b6000610d6b82610ed7565b9150610d7683610ed7565b9250827fffffffffffffffffffffffffffffffffffffffffffffffffffffffffffffffff03821115610dab57610daa610f4e565b5b828201905092915050565b6000610dc182610ed7565b9150610dcc83610ed7565b925082610ddc57610ddb610f7d565b5b828204905092915050565b6000610df282610ed7565b9150610dfd83610ed7565b9250817fffffffffffffffffffffffffffffffffffffffffffffffffffffffffffffffff0483118215151615610e3657610e35610f4e565b5b828202905092915050565b6000610e4c82610ed7565b9150610e5783610ed7565b925082821015610e6a57610e69610f4e565b5b828203905092915050565b6000610e8082610eb7565b9050919050565b6000610e9282610eb7565b9050919050565b60008115159050919050565b6000610eb082610e75565b9050919050565b600073ffffffffffffffffffffffffffffffffffffffff82169050919050565b6000819050919050565b6000610eec82610ef3565b9050919050565b6000610efe82610eb7565b9050919050565b6000610f1082610ed7565b91507fffffffffffffffffffffffffffffffffffffffffffffffffffffffffffffffff821415610f4357610f42610f4e565b5b600182019050919050565b7f4e487b7100000000000000000000000000000000000000000000000000000000600052601160045260246000fd5b7f4e487b7100000000000000000000000000000000000000000000000000000000600052601260045260246000fd5b7f5072696365206d7573742062652067726561746572207468616e207a65726f00600082015250565b7f496e73756666696369656e742066756e64730000000000000000000000000000600082015250565b7f4974656d20646f65736e27742065786973740000000000000000000000000000600082015250565b7f5265656e7472616e637947756172643a207265656e7472616e742063616c6c00600082015250565b7f4974656d20616c726561647920736f6c64000000000000000000000000000000600082015250565b61108281610ea5565b811461108d57600080fd5b50565b61109981610ed7565b81146110a457600080fd5b5056fea26469706673582212207d8a9a27ff6c72d8a415c5e6349524e2c755a95568663ee10ebc1b12de2cf8d164736f6c63430008040033",
  "linkReferences": {},
  "deployedLinkReferences": {}
}