{
  "_format": "hh-sol-artifact-1",
  "contractName": "Marketplace",
  "sourceName": "contracts/Marketplace.sol",
  "abi": [
    {
      "inputs": [
        {
          "internalType": "uint256",
          "name": "_feePercent",
          "type": "uint256"
        }
      ],
      "stateMutability": "nonpayable",
      "type": "constructor"
    },
    {
      "anonymous": false,
      "inputs": [
        {
          "indexed": false,
          "internalType": "uint256",
          "name": "itemId",
          "type": "uint256"
        },
        {
          "indexed": true,
          "internalType": "address",
          "name": "nft",
          "type": "address"
        },
        {
          "indexed": false,
          "internalType": "uint256",
          "name": "tokenId",
          "type": "uint256"
        },
        {
          "indexed": false,
          "internalType": "uint256",
          "name": "price",
          "type": "uint256"
        },
        {
          "indexed": true,
          "internalType": "address",
          "name": "seller",
          "type": "address"
        },
        {
          "indexed": true,
          "internalType": "address",
          "name": "buyer",
          "type": "address"
        }
      ],
      "name": "Bought",
      "type": "event"
    },
    {
      "anonymous": false,
      "inputs": [
        {
          "indexed": false,
          "internalType": "uint256",
          "name": "itemId",
          "type": "uint256"
        },
        {
          "indexed": true,
          "internalType": "address",
          "name": "nft",
          "type": "address"
        },
        {
          "indexed": false,
          "internalType": "uint256",
          "name": "tokenId",
          "type": "uint256"
        },
        {
          "indexed": false,
          "internalType": "uint256",
          "name": "price",
          "type": "uint256"
        },
        {
          "indexed": true,
          "internalType": "address",
          "name": "seller",
          "type": "address"
        }
      ],
      "name": "Offered",
      "type": "event"
    },
    {
      "anonymous": false,
      "inputs": [
        {
          "indexed": false,
          "internalType": "uint256",
          "name": "itemId",
          "type": "uint256"
        },
        {
          "indexed": true,
          "internalType": "address",
          "name": "nft",
          "type": "address"
        },
        {
          "indexed": false,
          "internalType": "uint256",
          "name": "tokenId",
          "type": "uint256"
        },
        {
          "indexed": false,
          "internalType": "uint256",
          "name": "price",
          "type": "uint256"
        },
        {
          "indexed": true,
          "internalType": "address",
          "name": "seller",
          "type": "address"
        }
      ],
      "name": "Removed",
      "type": "event"
    },
    {
      "inputs": [],
      "name": "feeAccount",
      "outputs": [
        {
          "internalType": "address payable",
          "name": "",
          "type": "address"
        }
      ],
      "stateMutability": "view",
      "type": "function"
    },
    {
      "inputs": [],
      "name": "feePercent",
      "outputs": [
        {
          "internalType": "uint256",
          "name": "",
          "type": "uint256"
        }
      ],
      "stateMutability": "view",
      "type": "function"
    },
    {
      "inputs": [
        {
          "internalType": "uint256",
          "name": "_itemId",
          "type": "uint256"
        }
      ],
      "name": "getPrice",
      "outputs": [
        {
          "internalType": "uint256",
          "name": "",
          "type": "uint256"
        }
      ],
      "stateMutability": "view",
      "type": "function"
    },
    {
      "inputs": [
        {
          "internalType": "uint256",
          "name": "_itemId",
          "type": "uint256"
        }
      ],
      "name": "getTotalPrice",
      "outputs": [
        {
          "internalType": "uint256",
          "name": "",
          "type": "uint256"
        }
      ],
      "stateMutability": "view",
      "type": "function"
    },
    {
      "inputs": [],
      "name": "itemCount",
      "outputs": [
        {
          "internalType": "uint256",
          "name": "",
          "type": "uint256"
        }
      ],
      "stateMutability": "view",
      "type": "function"
    },
    {
      "inputs": [
        {
          "internalType": "uint256",
          "name": "",
          "type": "uint256"
        }
      ],
      "name": "items",
      "outputs": [
        {
          "internalType": "uint256",
          "name": "itemId",
          "type": "uint256"
        },
        {
          "internalType": "contract IERC721",
          "name": "nft",
          "type": "address"
        },
        {
          "internalType": "uint256",
          "name": "tokenId",
          "type": "uint256"
        },
        {
          "internalType": "uint256",
          "name": "price",
          "type": "uint256"
        },
        {
          "internalType": "address payable",
          "name": "seller",
          "type": "address"
        },
        {
          "internalType": "bool",
          "name": "sold",
          "type": "bool"
        },
        {
          "internalType": "bool",
          "name": "removed",
          "type": "bool"
        }
      ],
      "stateMutability": "view",
      "type": "function"
    },
    {
      "inputs": [
        {
          "internalType": "contract IERC721",
          "name": "_nft",
          "type": "address"
        },
        {
          "internalType": "uint256",
          "name": "_tokenId",
          "type": "uint256"
        },
        {
          "internalType": "uint256",
          "name": "_price",
          "type": "uint256"
        }
      ],
      "name": "makeItem",
      "outputs": [],
      "stateMutability": "nonpayable",
      "type": "function"
    },
    {
      "inputs": [
        {
          "internalType": "uint256",
          "name": "_itemId",
          "type": "uint256"
        }
      ],
      "name": "purchaseItem",
      "outputs": [],
      "stateMutability": "payable",
      "type": "function"
    },
    {
      "inputs": [
        {
          "internalType": "uint256",
          "name": "_itemId",
          "type": "uint256"
        }
      ],
      "name": "removeItem",
      "outputs": [],
      "stateMutability": "nonpayable",
      "type": "function"
    }
  ],
  "bytecode": "0x60c06040523480156200001157600080fd5b506040516200166b3803806200166b83398181016040528101906200003791906200009c565b60016000819055508060a081815250503373ffffffffffffffffffffffffffffffffffffffff1660808173ffffffffffffffffffffffffffffffffffffffff1660601b8152505050620000ec565b6000815190506200009681620000d2565b92915050565b600060208284031215620000af57600080fd5b6000620000bf8482850162000085565b91505092915050565b6000819050919050565b620000dd81620000c8565b8114620000e957600080fd5b50565b60805160601c60a051611548620001236000396000818161052501526105e9015260008181610239015261087301526115486000f3fe6080604052600436106100865760003560e01c8063bfb231d211610059578063bfb231d214610135578063ca7dd37514610178578063d38ea5bf146101b5578063e7572230146101d1578063fa00afc71461020e57610086565b806365e17c9d1461008b5780636bfb0d01146100b657806371329171146100e15780637fd6f15c1461010a575b600080fd5b34801561009757600080fd5b506100a0610237565b6040516100ad9190610f75565b60405180910390f35b3480156100c257600080fd5b506100cb61025b565b6040516100d891906110a7565b60405180910390f35b3480156100ed57600080fd5b5061010860048036038101906101039190610e0c565b610261565b005b34801561011657600080fd5b5061011f610523565b60405161012c91906110a7565b60405180910390f35b34801561014157600080fd5b5061015c60048036038101906101579190610e0c565b610547565b60405161016f97969594939291906110c2565b60405180910390f35b34801561018457600080fd5b5061019f600480360381019061019a9190610e0c565b6105e3565b6040516101ac91906110a7565b60405180910390f35b6101cf60048036038101906101ca9190610e0c565b610646565b005b3480156101dd57600080fd5b506101f860048036038101906101f39190610e0c565b610a78565b60405161020591906110a7565b60405180910390f35b34801561021a57600080fd5b5061023560048036038101906102309190610dbd565b610a98565b005b7f000000000000000000000000000000000000000000000000000000000000000081565b60015481565b600260005414156102a7576040517f08c379a000000000000000000000000000000000000000000000000000000000815260040161029e90611067565b60405180910390fd5b600260008190555060006002600083815260200190815260200160002090508060040160149054906101000a900460ff1615610318576040517f08c379a000000000000000000000000000000000000000000000000000000000815260040161030f90611087565b60405180910390fd5b8060040160009054906101000a900473ffffffffffffffffffffffffffffffffffffffff1673ffffffffffffffffffffffffffffffffffffffff163373ffffffffffffffffffffffffffffffffffffffff16146103aa576040517f08c379a00000000000000000000000000000000000000000000000000000000081526004016103a190611027565b60405180910390fd5b60018160040160156101000a81548160ff0219169083151502179055508060010160009054906101000a900473ffffffffffffffffffffffffffffffffffffffff1673ffffffffffffffffffffffffffffffffffffffff166323b872dd303384600201546040518463ffffffff1660e01b815260040161042c93929190610f90565b600060405180830381600087803b15801561044657600080fd5b505af115801561045a573d6000803e3d6000fd5b505050508060040160009054906101000a900473ffffffffffffffffffffffffffffffffffffffff1673ffffffffffffffffffffffffffffffffffffffff168160010160009054906101000a900473ffffffffffffffffffffffffffffffffffffffff1673ffffffffffffffffffffffffffffffffffffffff167fc23d0f70e30f6ea7ceaab9b41cf888f4322c3b36dfbe464bb8ae4e407d82a43b848460020154856003015460405161050f93929190611131565b60405180910390a350600160008190555050565b7f000000000000000000000000000000000000000000000000000000000000000081565b60026020528060005260406000206000915090508060000154908060010160009054906101000a900473ffffffffffffffffffffffffffffffffffffffff16908060020154908060030154908060040160009054906101000a900473ffffffffffffffffffffffffffffffffffffffff16908060040160149054906101000a900460ff16908060040160159054906101000a900460ff16905087565b600060647f000000000000000000000000000000000000000000000000000000000000000060646106149190611179565b60026000858152602001908152602001600020600301546106359190611200565b61063f91906111cf565b9050919050565b6002600054141561068c576040517f08c379a000000000000000000000000000000000000000000000000000000000815260040161068390611067565b60405180910390fd5b6002600081905550600061069f826105e3565b905060006002600084815260200190815260200160002090506000831180156106ca57506001548311155b610709576040517f08c379a000000000000000000000000000000000000000000000000000000000815260040161070090611047565b60405180910390fd5b8134101561074c576040517f08c379a000000000000000000000000000000000000000000000000000000000815260040161074390611007565b60405180910390fd5b8060040160149054906101000a900460ff161561079e576040517f08c379a000000000000000000000000000000000000000000000000000000000815260040161079590611087565b60405180910390fd5b8060040160159054906101000a900460ff16156107f0576040517f08c379a00000000000000000000000000000000000000000000000000000000081526004016107e790610fe7565b60405180910390fd5b8060040160009054906101000a900473ffffffffffffffffffffffffffffffffffffffff1673ffffffffffffffffffffffffffffffffffffffff166108fc60026000868152602001908152602001600020600301549081150290604051600060405180830381858888f19350505050158015610870573d6000803e3d6000fd5b507f000000000000000000000000000000000000000000000000000000000000000073ffffffffffffffffffffffffffffffffffffffff166108fc8260030154846108bb919061125a565b9081150290604051600060405180830381858888f193505050501580156108e6573d6000803e3d6000fd5b5060018160040160146101000a81548160ff0219169083151502179055508060010160009054906101000a900473ffffffffffffffffffffffffffffffffffffffff1673ffffffffffffffffffffffffffffffffffffffff166323b872dd303384600201546040518463ffffffff1660e01b815260040161096993929190610f90565b600060405180830381600087803b15801561098357600080fd5b505af1158015610997573d6000803e3d6000fd5b505050503373ffffffffffffffffffffffffffffffffffffffff168160040160009054906101000a900473ffffffffffffffffffffffffffffffffffffffff1673ffffffffffffffffffffffffffffffffffffffff168260010160009054906101000a900473ffffffffffffffffffffffffffffffffffffffff1673ffffffffffffffffffffffffffffffffffffffff167f8b4c9c8a607d67b321582dd8461041b1dc2ceeca70c8b7f37f8e02095cf2e76d8685600201548660030154604051610a6393929190611131565b60405180910390a45050600160008190555050565b600060026000838152602001908152602001600020600301549050919050565b60026000541415610ade576040517f08c379a0000000000000000000000000000000000000000000000000000000008152600401610ad590611067565b60405180910390fd5b600260008190555060008111610b29576040517f08c379a0000000000000000000000000000000000000000000000000000000008152600401610b2090610fc7565b60405180910390fd5b60016000815480929190610b3c9061131e565b91905055508273ffffffffffffffffffffffffffffffffffffffff166323b872dd3330856040518463ffffffff1660e01b8152600401610b7e93929190610f90565b600060405180830381600087803b158015610b9857600080fd5b505af1158015610bac573d6000803e3d6000fd5b505050506040518060e0016040528060015481526020018473ffffffffffffffffffffffffffffffffffffffff1681526020018381526020018281526020013373ffffffffffffffffffffffffffffffffffffffff168152602001600015158152602001600015158152506002600060015481526020019081526020016000206000820151816000015560208201518160010160006101000a81548173ffffffffffffffffffffffffffffffffffffffff021916908373ffffffffffffffffffffffffffffffffffffffff160217905550604082015181600201556060820151816003015560808201518160040160006101000a81548173ffffffffffffffffffffffffffffffffffffffff021916908373ffffffffffffffffffffffffffffffffffffffff16021790555060a08201518160040160146101000a81548160ff02191690831515021790555060c08201518160040160156101000a81548160ff0219169083151502179055509050503373ffffffffffffffffffffffffffffffffffffffff168373ffffffffffffffffffffffffffffffffffffffff167f655a0cf9c8db81512be9a76dc1c5ae5380b8816ce6ad659cd61b715e2999d59a6001548585604051610d7e93929190611131565b60405180910390a36001600081905550505050565b600081359050610da2816114e4565b92915050565b600081359050610db7816114fb565b92915050565b600080600060608486031215610dd257600080fd5b6000610de086828701610d93565b9350506020610df186828701610da8565b9250506040610e0286828701610da8565b9150509250925092565b600060208284031215610e1e57600080fd5b6000610e2c84828501610da8565b91505092915050565b610e3e816112a0565b82525050565b610e4d8161128e565b82525050565b610e5c816112b2565b82525050565b610e6b816112fa565b82525050565b6000610e7e601f83611168565b9150610e89826113c5565b602082019050919050565b6000610ea1600c83611168565b9150610eac826113ee565b602082019050919050565b6000610ec4601283611168565b9150610ecf82611417565b602082019050919050565b6000610ee7600e83611168565b9150610ef282611440565b602082019050919050565b6000610f0a601283611168565b9150610f1582611469565b602082019050919050565b6000610f2d601f83611168565b9150610f3882611492565b602082019050919050565b6000610f50601183611168565b9150610f5b826114bb565b602082019050919050565b610f6f816112f0565b82525050565b6000602082019050610f8a6000830184610e35565b92915050565b6000606082019050610fa56000830186610e44565b610fb26020830185610e44565b610fbf6040830184610f66565b949350505050565b60006020820190508181036000830152610fe081610e71565b9050919050565b6000602082019050818103600083015261100081610e94565b9050919050565b6000602082019050818103600083015261102081610eb7565b9050919050565b6000602082019050818103600083015261104081610eda565b9050919050565b6000602082019050818103600083015261106081610efd565b9050919050565b6000602082019050818103600083015261108081610f20565b9050919050565b600060208201905081810360008301526110a081610f43565b9050919050565b60006020820190506110bc6000830184610f66565b92915050565b600060e0820190506110d7600083018a610f66565b6110e46020830189610e62565b6110f16040830188610f66565b6110fe6060830187610f66565b61110b6080830186610e35565b61111860a0830185610e53565b61112560c0830184610e53565b98975050505050505050565b60006060820190506111466000830186610f66565b6111536020830185610f66565b6111606040830184610f66565b949350505050565b600082825260208201905092915050565b6000611184826112f0565b915061118f836112f0565b9250827fffffffffffffffffffffffffffffffffffffffffffffffffffffffffffffffff038211156111c4576111c3611367565b5b828201905092915050565b60006111da826112f0565b91506111e5836112f0565b9250826111f5576111f4611396565b5b828204905092915050565b600061120b826112f0565b9150611216836112f0565b9250817fffffffffffffffffffffffffffffffffffffffffffffffffffffffffffffffff048311821515161561124f5761124e611367565b5b828202905092915050565b6000611265826112f0565b9150611270836112f0565b92508282101561128357611282611367565b5b828203905092915050565b6000611299826112d0565b9050919050565b60006112ab826112d0565b9050919050565b60008115159050919050565b60006112c98261128e565b9050919050565b600073ffffffffffffffffffffffffffffffffffffffff82169050919050565b6000819050919050565b60006113058261130c565b9050919050565b6000611317826112d0565b9050919050565b6000611329826112f0565b91507fffffffffffffffffffffffffffffffffffffffffffffffffffffffffffffffff82141561135c5761135b611367565b5b600182019050919050565b7f4e487b7100000000000000000000000000000000000000000000000000000000600052601160045260246000fd5b7f4e487b7100000000000000000000000000000000000000000000000000000000600052601260045260246000fd5b7f5072696365206d7573742062652067726561746572207468616e207a65726f00600082015250565b7f4974656d2072656d6f7665640000000000000000000000000000000000000000600082015250565b7f496e73756666696369656e742066756e64730000000000000000000000000000600082015250565b7f4974656d206e6f74206f776e6564000000000000000000000000000000000000600082015250565b7f4974656d20646f65736e27742065786973740000000000000000000000000000600082015250565b7f5265656e7472616e637947756172643a207265656e7472616e742063616c6c00600082015250565b7f4974656d20616c726561647920736f6c64000000000000000000000000000000600082015250565b6114ed816112be565b81146114f857600080fd5b50565b611504816112f0565b811461150f57600080fd5b5056fea26469706673582212202e75306c9751dfa8b304b56f17c367141439415075cbe53d004ddfd0014f58c764736f6c63430008040033",
  "linkReferences": {},
  "deployedLinkReferences": {}
}